:100000000A128A11FC2F00308A000408840A820731
:100010000034483465346A3420344D3461346434F7
:1000200073340034483465346A3420344B346F34CC
:0600300073347434003447
:100CE40000300A128A11A2260A128A1101300A124D
:100CF4008A11A226080001300A128A11A2260A12B9
:100D04008A110C300A128A11A2260800F000701C05
:100D14008F2E831203138714922E831203138710CA
:100D2400F01C962E0714972E0710701D9B2E051786
:100D34009C2E0513F01DA02E8517080085130800AE
:100D4400F30083120313871173080A128A11882689
:100D54000A128A118312031307150B30F200623052
:100D6400F100F10BB32EF20BB32E00008312031328
:100D740007110800F700F501F601750877078400EC
:100D84000A128A1103200A128A1100380319080072
:100D94007508770784000A128A1103200A128A113F
:100DA4000A128A11DE260A128A110130F507031885
:100DB400F60A0030F607BF2EF40074080F39F1006C
:100DC4007108F2007408F039F1007108F30083121D
:100DD400031387157308F10004300310F10CFF3E70
:100DE400031DEF2E71080A128A1188260A128A112D
:100DF4008312031307151A30F100F10BFF2E0000C4
:100E040083120313071172080A128A1188260A1220
:100E14008A118312031307151A30F100F10B102FF6
:100E2400000083120313071108007730831603139D
:100E34008F00870185010A128A11A1270A128A11DB
:100E44000A128A1172260A128A11F401F40A013074
:100E54000A128A1156270A128A1101300A128A11BB
:100E6400BC260A128A11F401F40A02300A128A1109
:100E740056270A128A110A300A128A11BC260A124B
:100E84008A110A128A117D260A128A110630FD007F
:100E94001330FC00B130FB00FB0B4E2FFC0B4E2F2C
:100EA400FD0B4E2F552F432FF7007708013A031DF2
:100EB4007C2F74087F3EF5007508FA007A08F50067
:100EC40004300310F50CFF3E031D632F7508F60074
:100ED4007608F8007A080F39F5007508F9007808E3
:100EE4000A128A11A2260A128A1179080A128A1190
:100EF400A22608007708023A031D08007408BF3EC2
:100F0400F5007508FA007A08F50004300310F50CB2
:100F1400FF3E031D882F7508F6007608F8007A084E
:100F24000F39F5007508F90078080A128A11A2260B
:100F34000A128A1179080A128A11A22608000030BE
:100F44000A128A1188260A128A113430F500F13007
:100F5400F400F40BAB2FF50BAB2FB02F03300A12B8
:100F64008A11A2260A128A110D30F500FB30F40012
:100F7400F40BBA2FF50BBA2FBF2F03300A128A11C4
:100F8400A2260A128A111D30F5009130F400F40BE8
:100F9400C92FF50BC92F03300A128A11A2260A128F
:100FA4008A1102300A128A11A2260A128A11023008
:100FB4000A128A11A2260A128A1108300A128A1108
:100FC400A2260A128A1100300A128A11A2260A12D3
:100FD4008A110C300A128A11A2260A128A110030D0
:100FE4000A128A11A2260A128A1106300A128A11DA
:0C0FF400A226080083010A128A11172FA0
:04400E00F4E3FFFFD9
:00000001FF
