:100000000A128A11FC2F00308A000408840A820731
:100010000034533474346A34653472346E34653465
:100020004934643469346F34743465346E34003464
:100D360000300A128A11C0260A128A1101300A12DC
:100D46008A11C0260800F000701CAD2E8312031312
:100D56008714B02E831203138710F01CB42E0714C9
:100D6600B52E0710701DB92E0517BA2E0513F01DE6
:100D7600BE2E8517080085130800F300831203139F
:100D8600871173080A128A11A6260A128A1183127B
:100D9600031307150B30F2006230F100F10BD12E70
:100DA600F20BD12E000083120313071108007730CF
:100DB600831603138F00870185010A128A11A12762
:100DC6000A128A110A128A119B260A128A11043003
:100DD600FB007B08F40001300A128A1156270A121A
:100DE6008A1101300A128A11FB260A128A11FA2E7A
:100DF600F700F501F6017508770784000A128A11D3
:100E060003200A128A1100380319080075087707AB
:100E160084000A128A1103200A128A110A128A1100
:100E26001D270A128A110130F5070318F60A003049
:100E3600F607FE2EF40074080F39F1007108F2006F
:100E46007408F039F1007108F30083120313871553
:100E56007308F10004300310F10CFF3E031D2E2F22
:100E660071080A128A11A6260A128A11831203131E
:100E760007151A30F100F10B3E2F00008312031301
:100E8600071172080A128A11A6260A128A118312FB
:100E9600031307151A30F100F10B4F2F00008312D0
:100EA600031307110800F7007708013A031D7C2F8A
:100EB60074087F3EF5007508FA007A08F5000430DC
:100EC6000310F50CFF3E031D632F7508F600760828
:100ED600F8007A080F39F5007508F90078080A1243
:100EE6008A11C0260A128A1179080A128A11C026A6
:100EF60008007708023A031D08007408BF3EF50093
:100F06007508FA007A08F50004300310F50CFF3E68
:100F1600031D882F7508F6007608F8007A080F3941
:100F2600F5007508F90078080A128A11C0260A1217
:100F36008A1179080A128A11C026080000300A129E
:100F46008A11A6260A128A113430F500F130F4000F
:100F5600F40BAB2FF50BAB2FB02F03300A128A110F
:100F6600C0260A128A110D30F500FB30F400F40B8E
:100F7600BA2FF50BBA2FBF2F03300A128A11C026DB
:100F86000A128A111D30F5009130F400F40BC92FB6
:100F9600F50BC92F03300A128A11C0260A128A11CC
:100FA60002300A128A11C0260A128A1102300A1267
:100FB6008A11C0260A128A1108300A128A11C0261E
:100FC6000A128A1100300A128A11C0260A128A11E0
:100FD6000C300A128A11C0260A128A1100300A122F
:100FE6008A11C0260A128A1106300A128A11C026F0
:0A0FF600080083010A128A11DA2EA6
:04400E00F4E3FFFFD9
:00000001FF
